:020000040800F2
:1000000000000220DD6800082D5B0008355B000859
:10001000375B0008395B00083B5B0008000000000C
:100020000000000000000000000000006157000810
:100030003D5B00080000000001580008EB5200087A
:100040002D6900082D6900082D6900082D69000838
:100050002D6900082D6900082D6900082D69000828
:100060002D6900082D6900082D6900082D69000818
:100070002D6900082D6900082D6900082D69000808
:100080002D6900082D6900082D6900080000000096
:100090000000000000000000000000002D690008C2
:1000A0002D690008415B00082D6900082D690008D2
:1000B0002D6900082D6900082D6900082D690008C8
:1000C0002D6900082D6900082D6900082D690008B8
:1000D0002D6900082D6900082D6900080000000046
:1000E0002D6900082D6900082D6900080000000036
:1000F0000000000000000000000000002D69000862
:10010000000000002D6900082D6900082D69000815
:1001100000000000000000000000000000000000DF
:100120002D6900082D6900082D6900082D69000857
:100130002D69000800000000000000000000000021
:10014000000000000000000000000000515B0008FB
:100150002D6900082D6900082D6900082D69000827
:100160002D6900082D690008000000000000000053
:10017000000000000000000000000000000000007F
:10018000000000002D6900080000000000000000D1
:080190002D6900082D6900082B
:1001A0000348044B834202D0034B03B11847704706
:1001B000FC000020FC000020000000000548064B69
:1001C0001B1AD90F01EBA301491002D0034B03B155
:1001D00018477047FC000020FC00002000000000D1
:1001E00010B5064C237843B9FFF7DAFF044B13B17F
:1001F0000448AFF300800123237010BDFC000020F1
:10020000000000003069000808B5044B1BB1044928
:100210000448AFF30080BDE80840CFE700000000CD
:10022000000100203069000870B50F4B0F4DAB4244
:10023000A3EB050607D0B610002455F8043B0134A3
:100240009847A642F9D806F073FB094D094B5E1B8F
:10025000AB424FEAA60606D0002455F8043B013411
:100260009847A642F9D870BD0C6C00080C6C0008C9
:100270000C6C0008106C0008830730B547D0541E82
:10028000002A3ED0CAB2034601E0013C39D303F84C
:10029000012B9D07F9D1032C2CD9CDB205EB0525F7
:1002A0000F2C05EB054535D9A4F1100222F00F0CF7
:1002B00003F1100EE6444FEA121C1A46C2E900553B
:1002C000C2E9025510327245F8D10CF1010214F066
:1002D0000C0F03EB021204F00F0C13D0ACF104036B
:1002E00023F003030433134442F8045B9342FBD12D
:1002F0000CF003042CB1C9B21C4403F8011BA34247
:10030000FBD130BD64461346002CF4D1F9E7034617
:100310001446C0E71A46A446E0E700BF844641EA17
:10032000000313F003036DD1403A41D351F8043B6D
:1003300040F8043B51F8043B40F8043B51F8043BBF
:1003400040F8043B51F8043B40F8043B51F8043BAF
:1003500040F8043B51F8043B40F8043B51F8043B9F
:1003600040F8043B51F8043B40F8043B51F8043B8F
:1003700040F8043B51F8043B40F8043B51F8043B7F
:1003800040F8043B51F8043B40F8043B51F8043B6F
:1003900040F8043B51F8043B40F8043B51F8043B5F
:1003A00040F8043B51F8043B40F8043B403ABDD2CE
:1003B000303211D351F8043B40F8043B51F8043B70
:1003C00040F8043B51F8043B40F8043B51F8043B2F
:1003D00040F8043B103AEDD20C3205D351F8043BFF
:1003E00040F8043B043AF9D2043208D0D2071CBFCB
:1003F00011F8013B00F8013B01D30B8803806046F4
:10040000704700BF082A13D38B078DD010F0030369
:100410008AD0C3F10403D21ADB071CBF11F8013BD9
:1004200000F8013B80D331F8023B20F8023B7BE728
:10043000043AD9D3013A11F8013B00F8013BF9D253
:100440000B7803704B7843708B78837060467047ED
:1004500053B94AB9002908BF00281CBF4FF0FF312B
:100460004FF0FF3000F06AB9ADF1080C6DE904CE31
:1004700000F006F8DDF804E0DDE9022304B070477F
:100480002DE9F047089D0E4604460F46002B4AD141
:1004900094468C45B2FA82F260D942B1C2F120038F
:1004A000974020FA03F30CFA02FC1F4394404FEAF2
:1004B0001C4E1FFA8CF6B7FBFEF1230C0EFB1177D6
:1004C00043EA074301FB06F098420AD91CEB0303F9
:1004D00001F1FF3780F01581984240F21281023914
:1004E00063441B1AA4B2B3FBFEF00EFB103344EAC4
:1004F000034400FB06F6A6420AD91CEB040400F1F3
:10050000FF3380F00081A64240F2FD80644402384F
:1005100040EA0140A41B00211DB1D4400023C5E9DD
:100520000043BDE8F0878B4205D90DB1C5E9000154
:1005300000210846F5E7B3FA83F1002946D1B3421A
:1005400002D3824200F2F580841A66EB0302012096
:100550001746002DE5D0C5E90047E2E7002A40F044
:100560009380A1EB0C034FEA1C471FFA8CFE01217C
:10057000B3FBF7F607FB1630230C43EA00430EFBF0
:1005800006F0984208D91CEB030306F1FF3802D2AB
:10059000984200F2D08046461B1AA4B2B3FBF7F093
:1005A00007FB103344EA03440EFB00FEA64508D9BE
:1005B0001CEB040400F1FF3302D2A64500F2B68022
:1005C0001846A4EB0E0440EA0640A5E7C1F1200757
:1005D0008B4022FA07FC4CEA030C06FA01FE20FAD3
:1005E00007F426FA07F344EA0E0400FA01F84FEA8A
:1005F0001C404FEA1449B3FBF0FE1FFA8CF600FBD7
:100600001E3349EA03430EFB06F9994502FA01F24B
:100610000BD91CEB03030EF1FF3A80F0858099455E
:1006200040F28280AEF1020E6344A3EB0909A4B24A
:10063000B9FBF0F300FB139944EA094403FB06F607
:10064000A64208D91CEB040403F1FF3068D2A6428D
:1006500066D9023B644443EA0E40A41BA0FB02E6B9
:10066000B4427346B14652D34FD05DB1B8EB0302EA
:1006700064EB090404FA07F722FA01F31F43CC40A4
:10068000C5E9007400214CE7C2F1200120FA01F312
:100690000CFA02FC26FA01F1964033434FEA1C475C
:1006A0001FFA8CFEB1FBF7F007FB1016190C41EA9C
:1006B000064100FB0EF68E4204FA02F408D91CEB48
:1006C000010100F1FF382DD28E422BD9023861444E
:1006D000891B9BB2B1FBF7F607FB161143EA0143F6
:1006E00006FB0EF1994208D91CEB030306F1FF3813
:1006F00014D2994212D9023E63445B1A46EA004181
:1007000036E73946EDE6184602E7F045ADD2BEEBD6
:10071000020366EB0C060138B146A6E74646ECE755
:10072000034698E74046D3E7D6467EE7644402385E
:1007300047E708460DE7023E63442DE7704700BFD8
:100740002DE9F04383B0D0F8008001EBC10300EB4A
:1007500083039A6A5B6A9A4254D807460C469B1AEE
:1007600001EBC10200EB8202D2699A4200D31A4621
:1007700002F103094FEA990915E006F103094FEA6E
:100780009909BB7904EBC40507EB8505296A009339
:10079000B3B2E2B2404601F064F92B6A33442B62F3
:1007A000AB6A3344AB6208EB441303F510639B69F7
:1007B0009BB24B4512D304EBC40307EB83039A6A45
:1007C0005B6A9A420AD24BB19B1A04EBC40207EB54
:1007D0008202D6699E42D0D31E46CEE704EBC40304
:1007E00007EB83077A6ABB6A9A420FD804F00F04BA
:1007F0000122A240D8F8343823EA0203C8F834387A
:10080000002000E0012003B0BDE8F0830020FAE7FB
:1008100030B583B0F0B10446056890F89534F3B173
:10082000032384F89534B5F1A04F22D0206800F05E
:10083000C1FE237C8DF80030231D0ECB206800F014
:10084000F8FDC8B90021206801F01BFB0246D8B9A9
:10085000034634E0374805F063FD01255EE0364885
:1008600005F05EFD002384F89434204605F0CAFEAE
:10087000D6E70023A371D9E7304805F051FD0223E4
:1008800084F89534012549E02D4805F049FD0223FF
:1008900084F89534012541E003EBC30104EB8101A9
:1008A000012048750B75CB8500200876C861086269
:1008B00003EBC30104EB810148620133DBB2207911
:1008C0009842E9D816E002EBC20304EB830300214F
:1008D00083F8551283F8542283F85812C3F85C1237
:1008E000C3F8601202EBC20304EB8303C3F8641283
:1008F0000132D2B29042E6D8237C8DF80030231D1D
:100900000ECB206800F0ACFE054650B9002363749E
:10091000012384F89534206801F072FA284603B068
:1009200030BD084805F0FCFC022384F8953401250D
:10093000F4E700BF486900085C69000870690008B6
:1009400088690008A8690008036890F89424012ABF
:100950001AD010B50446012280F89424DA6812F007
:10096000400F02D0427B012A09D0206800F01CFE13
:10097000206801F037FA002084F8940410BD9A6BC7
:1009800042F480329A63F0E70220704770B5044663
:100990000D460068066C00EB411303F530639A685E
:1009A000A179012911D038498E4256D03DB905EBC5
:1009B000C50304EB8303D3F86432002B5ED0E9B2A5
:1009C000204605F067FE002070BD12F0080F09D028
:1009D0002E498E42F7D912F4004FF4D04FF4004262
:1009E0009A60F0E712F0200F02D020229A60EAE726
:1009F00012F0280FE7D125498E4206D912F4004F94
:100A000003D04FF400429A60DDE705EBC50204EB2A
:100A10008202D2F874121B69C3F31203CB1AC2F814
:100A200068327DB905EBC50204EB8202D2F864227C
:100A30006AB105EBC50204EB8202D2F860121944D8
:100A4000C2F86012E9B2204605F024FEBBE704F2CA
:100A50009C42012101F054FAF4E712F4004F03D054
:100A60004FF400429A60AEE712F0200F01D020222E
:100A70009A60E9B2204605F00DFEA4E704F29C421C
:100A8000002101F03DFA9AE70A31544F0A30544FE1
:100A900038B5044603681D6C03EB4113D3F8081BFB
:100AA0000E4A954207D903F5306311F4004F02D086
:100AB0004FF400429A60204605F0E4FD074B9D424A
:100AC00002D9A379012B01D0002038BD04F29C4249
:100AD0000121206801F014FAF6E700BF0A30544FF4
:100AE00090F89434012B0CD010B50446012380F803
:100AF00094344174006801F065F9002084F894048E
:100B000010BD0220704738B505468C4611F0800FA5
:100B100029D101F00F0E0EEBCE04A40004F51474DD
:100B20000444211D0EEBCE0E00EB8E0E00208EF83D
:100B300055020CF00F0C81F800C08A600B714A78E6
:100B40000AB1A1F81AC0022B1CD095F89434012BDD
:100B50001BD0012385F89434286800F066FE00203D
:100B600085F8940438BD01F00F0000EBC001890046
:100B700010312944043100EBC00005EB8000012452
:100B80004475D6E700234B71DFE70220EAE710B592
:100B900004460A4611F0800F20D101F00F0000EB4F
:100BA000C0039B0003F514732344191D00EBC00020
:100BB00004EB8000002380F8553202F00F020A7027
:100BC00094F89434012B18D0012384F894342068CD
:100BD00000F078FE002084F8940410BD01F00F00AE
:100BE00000EBC0039B0010332344191D00EBC00031
:100BF00004EB800001234375DFE70220EDE710B529
:100C0000144601F00F0C0CEBCC01890001F51471B6
:100C1000014404310CEBCC0E00EB8E0ECEF86022BA
:100C2000CEF864320023CEF868328EF855328EF852
:100C300054C28279012A04D0006800F029FF002004
:100C400010BDCEF87042F7E701F00F0101EBC101D2
:100C500000EB8100D0F86802704710B5144601F02F
:100C60000F0C0CEBCC0189001031014404310CEB6A
:100C7000CC0E00EB8E0ECEF82020CEF824300023D0
:100C8000CEF8283001238EF815308EF814C0827902
:100C90009A4204D0006800F0FBFE002010BDCEF8A0
:100CA0003040F7E738B501F00F050279AA4238D392
:100CB00004460B4611F0800F1FD101EBC1018900E2
:100CC00001F514710144043103EBC30300EB83030A
:100CD000002283F8552201238B700D7094F8943410
:100CE000012B20D0012384F89434206801F00FF800
:100CF00085B1002084F8940438BD05EBC501890056
:100D000010310144043105EBC50300EB83030122DC
:100D10005A75E0E704F29C42A179206801F0F0F8EE
:100D2000E7E70120E8E70220E6E701F00F03027998
:100D30009A4230D310B5044611F0800F1ED103EB58
:100D4000C301890001F514710144043103EBC302AE
:100D500000EB8202002082F8550200228A700B709C
:100D600094F89434012B18D0012384F8943420682B
:100D700000F0FAFF002084F8940410BD03EBC301D7
:100D8000890010310144043103EBC30200EB8202FD
:100D900001205075E1E7012070470220EDE708B51A
:100DA00011F0800F0CD101F00F0101EBC10189009E
:100DB00001F5147101440431006800F0F3FD08BD31
:100DC00001F00F0101EBC101890010310144043130
:100DD000F2E72DE9F04F83B004460568284601F09C
:100DE0004CF810B103B0BDE8F08F0646206801F062
:100DF00015F80028F6D005F50067BB68C3F30D238E
:100E0000C4F8D434206801F009F810F0020F04D0BF
:100E10002268536903F002035361206800F0FEFF6B
:100E200010F0100F15D02268936923F0100393611E
:100E3000D5F8208008F00F0908F4F013B3F5802FDF
:100E40004CD0B3F5402F6FD02268936943F0100364
:100E50009361206800F0E2FF10F4002F76D1206843
:100E600000F0DCFF10F4802F40F0E080206800F0FC
:100E7000D5FF0028C0F26181206800F0CFFF10F498
:100E8000006F09D0BB6813F0010F40F06E8122683B
:100E9000536903F400635361206800F0BFFF10F44E
:100EA000805F40F06681206800F0B8FF10F4005FBA
:100EB00040F0B381206800F0B1FF10F0080F40F05F
:100EC000C481206800F0AAFF10F0800F00F0D781E5
:100ED000AB6923F08003AB610126C0E147F6F073F4
:100EE00018EA030FB0D04FEA181A4FEAC90301936A
:100EF00009EBC90B04EB8B0BC8F30A12DBF8601289
:100F0000284600F0E1FEDBF86032CAF30A0A5344D7
:100F1000CBF86032DBF86832019A4A4404EB820273
:100F20005344C2F868328FE7082204F29C412846F5
:100F300000F0CAFE09EBC90304EB8303D3F868226F
:100F4000C8F30A184244C3F868227DE7206800F01D
:100F500069FF8046B14635E005EB49130122C3F82D
:100F6000082B49462046FFF711FD3CE005EB4913ED
:100F70000822C3F8082B49462046FFF789FD35E0D3
:100F800009EBC90304EB830393F85732012B41D0DB
:100F900005EB49130222C3F8082B1AF0200F04D0E6
:100FA00005EB49132022C3F8082B1AF4005F05D083
:100FB00005EB49134FF40052C3F8082B09F101095E
:100FC0004FEA5808B8F1000F3FF449AF18F0010F8D
:100FD000F4D05FFA89FB5946206800F033FF82465F
:100FE00010F0010FB8D11AF0080FBFD11AF0100F8E
:100FF00004D005EB49131022C3F8082B1AF0020F96
:10100000CBD06B6913F0800FBAD07B6843F4806358
:101010007B60B5E709EBC90304EB8303002283F887
:1010200057225946204605F089FBB1E7206800F0B9
:1010300001FF8046B14625E05946204605F036FBC3
:101040001AF0080F04D005EB49130822C3F8082949
:101050001AF0100F04D005EB49131022C3F8082929
:101060001AF0400F04D005EB49134022C3F80829B9
:101070001AF0020F40D11AF0800F59D109F101097D
:101080004FEA5808B8F1000F3FF4F0AE18F0010F26
:10109000F4D05FFA89FB5946206800F0DCFE8246F6
:1010A00010F0010FCCD009F00F02012101FA02F279
:1010B0007B6B23EA02037B6305EB4913C3F8081932
:1010C000A3798B42B8D109EBC90304EB83031A6AF5
:1010D000D9690A441A62B9F1000FADD109EBC9030D
:1010E00004EB83035B6A002BA6D104F29C4201212E
:1010F000206800F005FF9FE74946284600F060FAA7
:1011000009EBC90304EB8303DB7D012B05D005EB61
:1011100049130222C3F80829ADE709EBC90304EB20
:1011200083030022DA755946204605F00DFBEEE7F1
:1011300049462046FFF704FBA0E77B6823F0010344
:101140007B6094F8CC34012B08D0204605F0F0FAEF
:101150002268536903F0004353618DE6002184F84F
:10116000CC14204600F03FF9F2E7204605F0C8FA1B
:101170008DE67B6823F001037B601021206800F07E
:101180001FFA1AE005EB46134FF67F31C3F8081932
:10119000D3F8002922F40012C3F80029C3F8081B71
:1011A000D3F8002B22F40012C3F8002BD3F8002B45
:1011B00042F00062C3F8002B01362379B342E1D834
:1011C000FB6943F00113FB61E37BDBB1D7F88430AB
:1011D00043F00B03C7F884307B6C43F00B037B6454
:1011E000D5F8003823F4FE63C5F8003804F29C42B9
:1011F000A179206800F084FE2268536903F48053CB
:10120000536150E67B6943F4005343F02B037B6149
:101210003B6943F00B033B61E2E7206800F062FEAC
:10122000206800F0F1FAE071266801F09FF90146AC
:10123000E279304600F046F9204605F049FA226886
:10124000536903F40053536134E6204605F039FA3C
:101250002268536903F00803536132E601362379AB
:10126000B3420CD906EBC60304EB830393F8573261
:10127000012BF3D1F1B22046FFF791FDEEE7206894
:1012800000F0CCFD10F4801F25D1206800F0C6FDD1
:1012900010F4001F59D0012326E001362379B34210
:1012A0001BD905EB4613D3F8002906EBC60304EB64
:1012B00083031B7E012BF0D1002AEEDA06EBC60376
:1012C00004EB83030122DA7566F07F01C9B2204680
:1012D000FFF765FDE1E70126E0E72268536903F4C3
:1012E00080135361D1E7013322799A4228D905EB63
:1012F0004312D2F8001B03EBC30204EB820292F804
:101300005822012AEFD10029EDDA01F48031D4F816
:10131000D42402F001029142E5D103EBC30204EBB5
:101320008202012182F85712AA6942F08002AA6162
:101330006A6912F0800FD6D17B6843F400737B603A
:101340002268536903F400135361206800F066FDBE
:1013500010F0804F10D1206800F060FD10F0040FF5
:101360003FF440AD23685D6815F0040F0DD122688D
:1013700053682B43536035E5204605F0EBF92268AE
:10138000536903F080435361E5E7204605F0E8F92F
:10139000EDE710B40468606A31B940EA0240A06227
:1013A00000205DF8044B70478C46A36A00EB1340A5
:1013B000002308E003F1400104EB8101496800EBE0
:1013C00011400133DBB20CF1FF318B42F2D340EA22
:1013D00002400CF13F0104EB81046060E0E7036828
:1013E000596200207047704782B000230193019B2F
:1013F00001330193019BB3F1706F15D80369002B82
:10140000F5DA00230193036943F001030361019BB3
:1014100001330193019BB3F1706F08D8036913F096
:10142000010FF4D1002000E0032002B07047032038
:10143000FBE784B010B5044603A880E80E009DF8D1
:101440001130012B21D1A36B23F48033A363E36814
:1014500023F4840323F04003E360E36823F44013A0
:10146000E3609DF81830012B0AD02046FFF7BCFF3F
:101470009DF80E30012B1CD0BDE8104004B0704721
:10148000E36843F48013E360EFE7E36843F040036D
:10149000E3602046FFF7A8FF9DF8153023B9A36B42
:1014A00043F48033A363E3E7A36B23F48033A363A4
:1014B000DEE7A36843F00603A360A36843F02003BC
:1014C000A360D9E7022A0AD00922C36823F4705323
:1014D000C360C36843EA8223C36000207047234B84
:1014E0000B44234A93422FD9224B0B44224A934266
:1014F0002CD9A1F57403A3F51053204A934227D9A0
:10150000A1F18373A3F5E7431D4A934222D31D4BF8
:101510000B441D4A93421FD91C4B0B441C4A934257
:101520001CD31C4B0B441C4A934219D3A1F1B77333
:10153000A3F55853194A934214D3194B0B44194A33
:10154000934211D20722C0E70F22BEE70E22BCE76A
:101550000D22BAE70C22B8E70B22B6E70A22B4E75D
:101560000922B2E70822B0E70622AEE7405327FF80
:10157000FF340C00401E1BFF3F420F007F4F120044
:1015800020D6130060B6E5FE5FE3160000D3CEFE62
:1015900040771B00C05BB3FEC0912100207538006E
:1015A000E05459FEE09C4100836843F001038360EE
:1015B00000207047836823F0010383600020704798
:1015C00082B000230193019B01330193019BB3F18E
:1015D000706F15D80369002BF5DA00230193890198
:1015E00041F020010161019B01330193019BB3F1A3
:1015F000706F08D8036913F0200FF4D1002000E0C9
:10160000032002B070470320FBE782B00023019360
:10161000019B01330193019BB3F1706F13D80369F0
:10162000002BF5DA0023019310230361019B0133A2
:101630000193019BB3F1706F08D8036913F0100F89
:10164000F4D1002000E0032002B070470320FBE744
:10165000D0F800381943C0F8001800207047000087
:1016600084B0F8B5044607A880E80E00002306E021
:1016700003F1400204EB82020021516001330E2B82
:10168000F6D99DF8265005BBD4F8043843F0020380
:10169000C4F80438A36B43F40013A363A36B23F4CF
:1016A0000023A363A36B23F48023A3630023C4F864
:1016B000003E9DF82130012B15D19DF81F306BB9EC
:1016C00000212046FFF7C4FF11E0A36B23F40013B1
:1016D000A363A36B43F40023A363E7E70121204640
:1016E000FFF7B6FF03E003212046FFF7B1FF10210B
:1016F0002046FFF765FF064668B92046FFF785FFDD
:1017000070B904F5006C0023CCF81030CCF814301C
:10171000CCF81C3014E03A4804F002FE0126ECE755
:10172000374804F0FDFD0126EBE7CBB94FF0006030
:10173000C2F8000900220A614FF67F328A60013345
:101740009DF81C10994210D904EB431202F5106168
:10175000D2F800090028E8DB0020C2F80009E9E718
:101760004FF09040C2F80009E4E700230AE0BBB163
:101770004FF09047C2F8007B002202614FF67F32A3
:1017800082600133994210D904EB431202F53060B4
:10179000D2F8007B002FEADB0027C2F8007BEBE7E2
:1017A0004FF00067C2F8007BE6E7DCF8103023F466
:1017B0008073CCF810300023A3616FF08043636125
:1017C0009DF81E301BB9A36943F01003A361A26901
:1017D0000C4B1343A3619DF822301BB1A36943F066
:1017E0000803A361012D04D03046BDE8F84004B0E1
:1017F0007047A36943F0804343F00403A361F3E718
:10180000C069000800383C80D0F8083803F00603AF
:10181000022B04D0062B04D02BB9002070470220E5
:101820007047022070470F20704710B591F800C034
:101830004B78012B23D000F5006ED0F81C380CF04B
:101840000F040122A24043EA0243C0F81C3800EB17
:101850004C10D0F8003B13F4004F0ED1D0F8003BF1
:101860008A68C2F30A02097942EA8142134343F0CB
:10187000805343F40043C0F8003B002010BDD0F873
:101880001C280CF00F0E03FA0EF39BB21343C0F8A2
:101890001C3800EB4C10D0F8003913F4004FECD199
:1018A000D0F800398A68C2F30A02097942EA814213
:1018B00042EA8C52134343F0805343F40043C0F890
:1018C0000039DAE730B40B784A78012A26D000EBE9
:1018D0004313D3F8002B002A52DBD0F83C480A7897
:1018E00002F00F024FF0010C0CFA02F224EA02425D
:1018F000C0F83C28D0F81C28097801F00F010CFA38
:1019000001FC22EA0C42C0F81C28D3F8001B234A31
:101910000A40C3F8002B002030BC704700EB431393
:10192000D3F80029002A1EDBD0F83C580A7802F0D0
:101930000F02012404FA02F292B225EA0202C0F870
:101940003C28D0F81C28097801F00F018C40A4B283
:1019500022EA0402C0F81C28D3F80019104A0A40F1
:10196000C3F80029D7E7D3F8002942F00062C3F892
:101970000029D3F8002942F08042C3F80029D3E7B8
:10198000D3F8002B42F00062C3F8002BD3F8002BF1
:1019900042F08042C3F8002B9FE700BF0078F3EFCE
:1019A000007833EC10B483B00246002301934878EA
:1019B00001280BD00B7802EB4313D3F8000B00285F
:1019C0002DDB002003B05DF8044B70470B7802EB71
:1019D0004313D3F80049002C01DB0020F2E7D3F8D1
:1019E000004944F00064C3F800490B7802EB43134C
:1019F000D3F8004944F08044C3F80049019B013307
:101A00000193019C42F210739C42DBD80B7802EBED
:101A10004313D3F80039002BF0DB0020D2E7D3F8D2
:101A2000000B40F00060C3F8000B0B7802EB43138F
:101A3000D3F8000B40F08040C3F8000B019B01334A
:101A40000193019842F21073984208D80B7802EB88
:101A50004313D3F8003B002BF0DB0020B2E701205A
:101A6000B0E710B59DF8084084B903334FEA930EF0
:101A70004FF0000C08E000EB023303F5805351F8FF
:101A8000044B1C600CF1010CF445F4D3002010BD94
:101A9000F0B583B00C784B78012B2DD000EB441CB3
:101AA0000CF530631D696FF312051D611D696FF33D
:101AB000DC451D61002C40F0C8800C690CB18C68BD
:101AC0000C618C680C621D69C4F312042C431C6108
:101AD0001C6944F400241C61012A00F0D9800B79B0
:101AE000012B00F0DB80DCF8003B43F00443CCF832
:101AF000003B002003B0F0BD0B6973BB00EB441347
:101B0000D3F810596FF3DC45C3F81059D3F81059C6
:101B100045F40025C3F81059D3F810596FF3120596
:101B2000C3F81059012A4ED000EB4414D4F8003900
:101B300043F00443C4F800390B79012B6CD00B69D6
:101B4000002BD6D0D0F83438097801F00F010122EB
:101B50008A401343C0F83438CBE700EB441303F555
:101B600010631D696FF312051D611D696FF3DC457C
:101B70001D61DCB90E698D68AE4200D90D611D6929
:101B800045F400251D611D690E69C6F3120C45EA76
:101B90000C051D610D79012DC4D11D6925F0C045CD
:101BA0001D611D6945F000551D61BBE71E690D698A
:101BB0008F683D44013DB5FBF7F5424F07EAC54547
:101BC00035431D61DFE7CB691BB100EB4412C2F85E
:101BD00014390B79012B08D000EB4414D4F80039E8
:101BE00043F00443C4F8003983E7D0F8083813F40D
:101BF000807F08D100EB4412D2F8003943F0005343
:101C0000C2F80039E8E700EB4412D2F8003943F09B
:101C10008053C2F80039DFE7D0F8083813F4807F2A
:101C20000CD1D4F8003943F00053C4F800390092C5
:101C30000B8A0A78C968FFF714FF5AE7D4F800390D
:101C400043F08053C4F80039F1E70C6954B91C69BA
:101C50008D68C5F312052C431C611C6944F40024F3
:101C60001C6139E78D682C44013CB4FBF5F4A4B247
:101C700004FB05F50D621D69124E06EAC4442C43AF
:101C80001C611C690D6AC5F312052C431C6123E716
:101C9000CA68002A3FF423AF5A6120E7D0F8083819
:101CA00013F4807F06D1DCF8003B43F00053CCF8FE
:101CB000003B18E7DCF8003B43F08053CCF8003BD6
:101CC00011E700BF0000F81F10B5844608464FEA30
:101CD000920E02F00302002305E00CF58051096822
:101CE00040F8041B01337345F7D37AB10CF5805CDF
:101CF000DCF800400021CBB2DB0024FA03F300F84B
:101D0000013B0131013A92B2002AF4D110BD0B78A7
:101D10004A78012A14D000EB4310D0F8002B002A97
:101D200006DB2BB1D0F8003B23F08043C0F8003B2A
:101D3000D0F8003B43F40013C0F8003B002070478C
:101D400000EB4310D0F80029002A06DB2BB1D0F8B5
:101D5000003923F08043C0F80039D0F8003943F44B
:101D60000013C0F80039E9E70B784A78012A0ED051
:101D700000EB4310D0F8003B23F40013C0F8003B05
:101D80000B79023BDBB2012B15D90020704700EB29
:101D90004310D0F8003923F40013C0F800390B7950
:101DA000023BDBB2012BF0D8D0F8003943F080536E
:101DB000C0F80039E9E7D0F8003B43F08053C0F8A1
:101DC000003BE2E7D0F8003823F4FE63C0F80038A7
:101DD000D0F80038090101F4FE610B43C0F8003867
:101DE00000207047D0F8003E23F00303C0F8003E07
:101DF000D0F8043823F00203C0F8043800207047FC
:101E0000D0F8003E23F00303C0F8003ED0F80438B9
:101E100043F00203C0F8043800207047426980692B
:101E200010407047D0F8183800F50060C0691840BD
:101E3000000C7047D0F8183800F50060C0691840F1
:101E400080B2704700EB4111D1F8082B00F500601B
:101E5000406910407047D0F81028D0F8343801F0AD
:101E60000F0C23FA0CF3DB01DBB2134300EB411040
:101E700000F51060806818407047406900F001006C
:101E8000704738B50546C36823F0C043C3600129D5
:101E900013D019BBC36843F08043C36000240A20F9
:101EA00000F016FD0A342846FFF7E7FF08B1C72CFB
:101EB000F5D9C82C14D0002038BDC36843F00053B6
:101EC000C36000240A2000F003FD0A342846FFF70F
:101ED000D4FF0128EDD0C72CF4D9EAE70120EBE7C5
:101EE0000120E9E7D0F800396FF30A03C0F80039A0
:101EF000D0F8043843F48073C0F8043800207047E9
:101F000010B4046C154B9C4203D9D0F8003B002B55
:101F100016DB0024C0F8104BD0F8104B44F400241A
:101F2000C0F8104BD0F8104B44F01804C0F8104B18
:101F3000D0F8104B44F0C044C0F8104B012903D036
:101F400000205DF8044B7047C0F8142BD0F8003B1C
:101F500043F08023C0F8003BF2E700BF0A30544F43
:101F6000002800F0E08170B582B00446036813F0E9
:101F7000010F3BD09F4B9B6803F00C03042B2CD02C
:101F80009C4B9B6803F00C03082B21D06368B3F5CE
:101F9000803F4FD0B3F5A02F52D0964B1A6822F451
:101FA00080321A601A6822F480221A606368002B5B
:101FB00050D000F087FC05468E4B1B6813F4003FA1
:101FC00014D100F07FFC401B6428F5D90320B1E157
:101FD000884B5B6813F4800FD8D0864B1B6813F4D2
:101FE000003F03D06368002B00F09F81236813F04B
:101FF000020F54D07F4B9B6813F00C0F3ED07D4BEB
:102000009B6803F00C03082B33D0E368002B68D0E7
:10201000794B01221A6000F055FC0546754B1B6890
:1020200013F0020F54D100F04DFC401B0228F5D9EB
:1020300003207FE16F4A136843F480331360B5E7F0
:102040006C4B1A6842F480221A601A6842F480329B
:102050001A60ABE700F036FC0546664B1B6813F4CC
:10206000003FC3D000F02EFC401B6428F5D90320AC
:1020700060E1604B5B6813F4800FC6D15D4B1B6859
:1020800013F0020F03D0E368012B40F05081594A4E
:10209000136823F0F803216943EAC103136023683E
:1020A00013F0080F42D063696BB3534B0122C3F89E
:1020B000802E00F007FC05464E4B5B6F13F0020FBD
:1020C00034D100F0FFFB401B0228F5D9032031E199
:1020D000484A136823F0F803216943EAC1031360F7
:1020E000DDE7454B00221A6000F0ECFB0546414B52
:1020F0001B6813F0020FD2D000F0E4FB401B022853
:10210000F5D9032016E13C4B0022C3F8802E00F0E5
:10211000D9FB0546374B5B6F13F0020F06D000F07A
:10212000D1FB401B0228F5D9032003E1236813F0FB
:10213000040F77D02F4B1B6C13F0805F33D100233B
:1021400001932C4B1A6C42F080521A641B6C03F002
:1021500080530193019B0125284B1B6813F4807F5A
:1021600023D0A368012B34D0052B38D0214B1A6F14
:1021700022F001021A671A6F22F004021A67A3689C
:10218000002B3DD000F09EFB06461A4B1B6F13F050
:10219000020F46D100F096FB801B41F28833984233
:1021A000F3D90320C6E00025D6E7144A136843F4A8
:1021B0008073136000F086FB0646104B1B6813F417
:1021C000807FCED100F07EFB801B0228F5D9032052
:1021D000B0E0084A136F43F001031367CFE7054BE4
:1021E0001A6F42F004021A671A6F42F001021A676E
:1021F000C5E700BF003802400000474200700040C1
:1022000000F060FB0646524B1B6F13F0020F08D024
:1022100000F058FB801B41F288339842F3D9032029
:1022200088E0EDB9A369002B00F08380484A9268EA
:1022300002F00C02082A51D0022B17D0454B002285
:102240001A6600F03FFB0446414B1B6813F0007F09
:1022500042D000F037FB001B0228F5D9032069E0CB
:102260003B4A136C23F080531364DBE7394B0022A5
:102270001A6600F027FB0546354B1B6813F0007FFC
:1022800006D000F01FFB401B0228F5D9032051E0C7
:10229000E369226A1343626A43EA8213A26A52081C
:1022A000013A43EA0243E26A43EA0263284A53607E
:1022B000284B01221A6600F005FB0446244B1B68DC
:1022C00013F0007F06D100F0FDFA001B0228F5D9BB
:1022D00003202FE000202DE000202BE0012B2BD04D
:1022E0001B4B5B6803F48001E269914226D103F045
:1022F0003F02216A8A4223D1616A47F6C0721A40BE
:10230000B2EB811F1ED103F44031A26A5208013A98
:10231000B1EB024F18D103F07063E26AB3EB026FC6
:1023200014D1002006E001207047012002E00120C6
:1023300000E0002002B070BD0120FBE70120F9E7BA
:102340000120F7E70120F5E70120F3E70120F1E79D
:102350000038024000004742014B0122DA64704716
:102360000000474208B5264B9B6803F00C03042B82
:1023700041D0082B41D1224B5A6802F03F025B68E2
:1023800013F4800F12D01E4B5968C1F388111D48F9
:102390000023A1FB0001FEF75BF8194B5B68C3F358
:1023A000014301335B00B0FBF3F008BD144B5868E8
:1023B000C0F388104FEA401CBCEB000C6EEB0E0E15
:1023C0004FEA8E1343EA9C634FEA8C11B1EB0C0188
:1023D00063EB0E03DB0043EA5173C90011EB000C01
:1023E00043F10003990200234FEA8C2041EA9C51FB
:1023F000FEF72EF8D1E70348D7E70348D5E700BF3B
:102400000038024040787D010024F400002800F0EC
:102410009B8070B50D4604464F4B1B6803F00703C5
:102420008B4208D2CBB24C4A1370136803F00703F7
:102430008B4240F08B80236813F0020F17D013F00B
:10244000040F04D0454A936843F4E0539360236833
:1024500013F0080F04D0414A936843F4604393603B
:102460003E4A936823F0F003A1680B43936023680E
:1024700013F0010F32D06368012B21D09A1E012A7C
:1024800025D9364A126812F0020F61D033498A68A2
:1024900022F0030213438B6000F014FA06462F4B20
:1024A0009B6803F00C036268B3EB820F16D000F058
:1024B00009FA801B41F288339842F0D9032042E0A8
:1024C000264A126812F4003FE0D101203BE0234A83
:1024D000126812F0007FD9D1012034E01E4B1B6836
:1024E00003F00703AB4207D9EAB21B4B1A701B6813
:1024F00003F00703AB422DD1236813F0040F06D07D
:10250000164A936823F4E053E1680B439360236811
:1025100013F0080F07D0114A936823F46043216930
:1025200043EAC1039360FFF71DFF0C4B9B68C3F3A5
:1025300003130B4AD35CD8400A4B18600A4B186847
:1025400003F0A4FB002070BD012070470120FAE7D2
:102550000120F8E70120F6E7003C02400038024085
:10256000AC6B00080800002004000020014B186834
:10257000704700BF0800002008B5FFF7F7FF044BC5
:102580009B68C3F34233034AD35CD84008BD00BF05
:1025900000380240A46B00080F2303600B4B9A68BD
:1025A00002F0030242609A6802F0F00282609A68C8
:1025B00002F4E052C2609B68DB0803F4E05303615D
:1025C000034B1B6803F007030B60704700380240A1
:1025D000003C02407047000008B5064BDB6813F072
:1025E000800F00D108BDFFF7F5FF024B80229A73E0
:1025F000F8E700BF0038024000230F2B00F2D7801D
:1026000070B582B065E085684FEA430E032404FA92
:102610000EF425EA0405CC6804FA0EF42C43846019
:10262000446824EA02044A68C2F300129A40224332
:1026300042605CE0DC08083450F8242003F0070511
:10264000AD004FF00F0E0EFA05FE22EA0E0E0A69DB
:10265000AA4042EA0E0240F824205CE0042200E096
:10266000002202FA0EF22A430234514D45F824208A
:10267000504A94686FEA0C0224EA0C054E6816F47E
:10268000801F01D04CEA04054A4CA560E46802EAC8
:1026900004054E6816F4001F01D04CEA0405454CB1
:1026A000E560646802EA04054E6816F4003F01D054
:1026B0004CEA04053F4C6560246822404D6815F4DF
:1026C000803F01D04CEA04023A4C226001330F2BC8
:1026D0006BD801229A400C6804EA020C32EA040426
:1026E000F4D14C6804F00304013C012C8BD94A68F6
:1026F00002F00302032A09D0C4685D000322AA4045
:1027000024EA02048A68AA402243C2604A6802F0AE
:102710000302022A8ED004684FEA430E032202FA13
:102720000EF224EA02044A6802F0030202FA0EF2F0
:10273000224302604A6812F4403FC7D0002201924F
:102740001D4A546C44F480445464526C02F4804238
:102750000192019A9C08A51C154A52F8255003F0D5
:10276000030E4FEA8E0E0F2202FA0EF225EA020540
:10277000124A90423FF474AF02F5806290420ED04C
:1027800002F5806290420CD002F5806290420AD03D
:1027900002F5806290423FF461AF072261E70122B7
:1027A0005FE702225DE703225BE702B070BD70477E
:1027B00000380140003C0140003802400000024067
:1027C000002807DB00F01F02400901239340024A62
:1027D00042F82030704700BF00E100E0002808DB2D
:1027E0000901C9B200F1604000F5614080F80013B2
:1027F000704700F00F000901C9B2014B195470472E
:1028000014ED00E000B500F00700C0F1070CBCF1CA
:10281000040F28BF4FF0040C031D062B0FD9C31E55
:102820004FF0FF3E0EFA0CF021EA000199400EFA3B
:1028300003FE22EA0E0241EA02005DF804FB0023D7
:10284000EEE70000074AD36823F4E0631B041B0C87
:10285000000200F4E060034343F0BF6343F400333D
:10286000D360704700ED00E010B50446054BD86812
:10287000C0F30220FFF7C6FF01462046FFF7AEFF78
:1028800010BD00BF00ED00E008B5FFF799FF08BDDF
:1028900008B50B4B1A6842F400721A601A6842F4C9
:1028A00080621A601A6842F480721A600320FFF78F
:1028B000C9FF0F2003F0EAF903F052F9002008BD28
:1028C000003C0240014B1868704700BF180100200F
:1028D00038B50446FFF7F6FF0546B4F1FF3F02D0D6
:1028E000044B1B781C44FFF7EDFF401BA042FAD3BA
:1028F00038BD00BF0000002058B110B50446437930
:102900001BB101236371002010BD037103F09EF819
:10291000F7E70120704700285AD010B50446436AF3
:1029200033B94368B3F5827F05D00023C36102E069
:102930000023036143610023A36294F85130002B0C
:1029400040D0022384F851302268136823F04003FA
:102950001360636803F48273A26802F404421343B1
:10296000E26802F400621343226902F00202134398
:10297000626902F001021343A26902F40072134378
:10298000E26902F038021343226A02F08002134324
:10299000A26A02F40052216813430B60638B03F0B8
:1029A0000403626A02F01002216813434B6022683C
:1029B000D36923F40063D36100206065012384F8A8
:1029C000513010BD84F85030204603F077F8B8E756
:1029D000012070477047000090F83D30DBB2012BBA
:1029E0002FD1022380F83D300268D36843F0010301
:1029F000D3600368154A934218D0B3F1804F15D0C5
:102A0000A2F57C42934211D002F5806293420DD030
:102A100002F58062934209D002F59A32934205D0C2
:102A20001A6842F001021A60002070479A6802F0AA
:102A30000702062A07D01A6842F001021A60002035
:102A40007047012070470020704700BF0000014020
:102A50007047704770477047704770B50446036809
:102A6000DE681D6915F0020F10D016F0020F0DD0B0
:102A70006FF002021A610123037703689B6913F068
:102A8000030F5ED0FFF7E6FF0023237715F0040F56
:102A900012D016F0040F0FD023686FF004021A61F1
:102AA0000223237723689B6913F4407F4FD020468D
:102AB000FFF7D0FF0023237715F0080F12D016F090
:102AC000080F0FD023686FF008021A6104232377E0
:102AD0002368DB6913F0030F40D02046FFF7BAFFED
:102AE0000023237715F0100F12D016F0100F0FD01F
:102AF00023686FF010021A61082323772368DB69CB
:102B000013F4407F31D02046FFF7A4FF0023237742
:102B100015F0010F02D016F0010F2DD115F0800F26
:102B200002D016F0800F2FD115F0400F02D016F012
:102B3000400F31D115F0200F02D016F0200F33D105
:102B400070BDFFF786FF2046FFF785FF9CE7204614
:102B5000FFF77FFF2046FFF77EFFABE72046FFF73A
:102B600078FF2046FFF777FFBAE72046FFF771FFAF
:102B70002046FFF770FFC9E723686FF001021A6172
:102B80002046FFF765FFC9E723686FF080021A61EE
:102B9000204600F094F8C7E723686FF040021A61FE
:102BA0002046FFF759FFC5E723686FF020021A613E
:102BB000204600F083F8C3E70368294A90420ED00C
:102BC000B0F1804F0BD0A2F57C42904207D002F5C5
:102BD0008062904203D002F58062904203D123F0DC
:102BE00070034A6813431E4A90421AD0B0F1804FD6
:102BF00017D0A2F57C42904213D002F58062904239
:102C00000FD002F5806290420BD002F59A329042CA
:102C100007D002F58062904203D002F580629042B4
:102C200003D123F44073CA68134323F080034A6935
:102C3000134303608B68C3620B688362084B98423E
:102C40000AD001234361036913F0010F03D0036924
:102C500023F00103036170470B690363F1E700BFD1
:102C60000000014040B310B5044690F83D30F3B188
:102C7000022384F83D30214651F8040BFFF79CFFF6
:102C8000012384F8463084F83E3084F83F3084F8DD
:102C9000403084F8413084F8423084F8433084F87E
:102CA000443084F8453084F83D30002010BD80F871
:102CB0003C30FFF78FFEDBE701207047704770471D
:102CC000034AD2F8883043F47003C2F88830704762
:102CD00000ED00E070B504460D461646104803F0BE
:102CE0001FFBBCB10F4803F01BFB0023C4F8B83234
:102CF000C4F8C432C4F8D0320DB1C4F8B4520123C0
:102D000084F89C322670084803F00AFB204603F042
:102D10002DFD70BD054803F003FB0320F9E700BF5C
:102D2000DC690008F4690008086A0008E86900081E
:102D300010B582B00023ADF8063089B10446C0F862
:102D4000B812CB6A23B10DF106009847C4F8D0023F
:102D5000D4F8D8320133C4F8D832002002B010BD04
:102D60000320FBE708B503F076FD08BD08B5D0F8F1
:102D7000B83213B11B68984708BD0020FCE708B5BE
:102D8000D0F8B8325B68984700B908BD0320FCE76B
:102D900038B5044600F2AA25284600F0C8F90123F8
:102DA000C4F89432B4F8B032C4F8983294F8AA1245
:102DB00001F01F03012B07D0022B0AD073B929465B
:102DC000204600F089FB38BD2946204600F0BFFBB5
:102DD000F9E72946204600F0FCFBF4E701F080010A
:102DE000204603F053FDEEE7F8B50446012380F8D2
:102DF0009C320023C0F894324360C0F8A43280F8BB
:102E0000A032D0F8B832DBB15B68DBB10021984763
:102E10000746C8B9402300221146204603F023FD8F
:102E20000126A4F864614025C4F860512B460022B5
:102E30008021204603F017FDA68425623846F8BDA0
:102E40000027E7E70027E5E70327E3E70174002011
:102E5000704790F89C32DBB2042B04D090F89C327F
:102E6000DBB280F89D32042380F89C32002070474A
:102E700090F89C32DBB2042B01D00020704790F810
:102E80009D32DBB280F89C32F7E708B590F89C32AF
:102E9000DBB2032B01D0002008BDD0F8B832002BE4
:102EA000F9D0DB69002BF6D09847F4E708B5D0F8E5
:102EB000D432AE3350F823205AB190F89C32DBB2B2
:102EC000032B01D0002008BD136A23B198470020CE
:102ED000F9E70320F7E70020F5E708B5D0F8D4328A
:102EE000AE3350F823205AB190F89C32DBB2032B5A
:102EF00001D0002008BD536A23B198470020F9E7AC
:102F00000320F7E70020F5E70020704708B501230C
:102F100080F89C32D0F8B83223B15B6801799847C9
:102F200010B908BD0020FCE70320FAE70020704735
:102F30000020704738B504460D46002942D113469B
:102F4000D0F89422032A01D0084638BDD0F85C118D
:102F5000D0F86021914209D890F8AA3203F01F03FB
:102F6000012B0ED0022B1BD028460FE0891AC0F887
:102F70005C118A4228BF0A46194600F083FC2846A5
:102F8000E3E790F8AE12FFF7D1FF20B994F89C3236
:102F9000DBB2032B09D0204600F07CFC2846D4E7A6
:102FA00090F8AE12FFF7C4FFEFE700F1AE0354F85C
:102FB00023301A69002AEED0C4F8D4021B692046D7
:102FC0009847E8E701F07F01FFF7B2FF90B994F866
:102FD0009C32DBB2032BB8D100F1AE0354F823309E
:102FE0009A69002AB1D0C4F8D4029B6929462046C8
:102FF0009847AAE70020A8E738B504460D460029FF
:103000004BD11346D0F89422022A07D094F8A0029C
:1030100018B1002384F8A032284638BDC269016A7D
:103020008A420ED88A4218D094F89C32DBB2032B25
:1030300027D08021204603F029FC204600F035FCF3
:10304000E4E7521AC261194600F005FC00231A4653
:103050001946204603F03AFCD8E783699942E3D841
:10306000D0F898229342DFD20022114600F0F3FB01
:103070000021C4F898120B460A46204603F026FCAD
:10308000C4E7D4F8B832DA68002AD2D00022C4F8F3
:10309000D422DB6820469847CBE741F08001FFF758
:1030A00047FF90B994F89C32DBB2032BB5D100F105
:1030B000AE0354F823305A69002AAED0C4F8D402C3
:1030C0005B69294620469847A7E70020A5E70B88BB
:1030D000027813440B8003781844704742880378C1
:1030E0009A4218D930B583B004460D46ADF8063083
:1030F0006388BDF806209A420AD20DF10601FFF757
:10310000E6FF4378052BF3D18378AB42F0D100E0A2
:10311000002003B030BD002070470346002002E0CD
:103120000130C0B201331A78002AF9D170470B7808
:1031300003704B7843708B78CA7843EA022343804C
:103140000B794A7943EA022383808B79CA7943EA6F
:103150000223C380704710B50446802103F096FB1C
:103160000021204603F092FB10BD30B583B0044629
:103170000D460023ADF806304A88130A013B062BA2
:1031800000F2AB80DFE803F0041F33A9A98D9A0099
:10319000D0F8B4321B680DF10601007C9847EA882C
:1031A000002A00F0A380BDF80630002B00F09980C3
:1031B0009A4228BF1A46ADF806200146204600F084
:1031C0003DFB03B030BD037C43B9D0F8B8329B6AF5
:1031D0000DF10600984702234370E0E7D0F8B832BB
:1031E000DB6A0DF10600984702234370D7E7D2B29D
:1031F000052A52D8DFE802F003101D2A3744D0F820
:10320000B4325B6823B10DF10601007C9847C6E734
:103210002946FFF7A0FFD4E7D0F8B4329B6823B16A
:103220000DF10601007C9847B9E72946FFF793FFA7
:10323000C7E7D0F8B432DB6823B10DF10601007C9A
:103240009847ACE72946FFF786FFBAE7D0F8B432D3
:103250001B6923B10DF10601007C98479FE72946C1
:10326000FFF779FFADE7D0F8B4325B6923B10DF118
:103270000601007C984792E72946FFF76CFFA0E71C
:10328000D0F8B4329B6923B10DF10601007C984758
:1032900085E72946FFF75FFF93E72946FFF75BFFC6
:1032A0008FE7037C33B9D0F8B8325B6B0DF10600C1
:1032B000984774E72946FFF74EFF82E7037C43B93E
:1032C000D0F8B8321B6B0DF1060098470723437006
:1032D00065E72946FFF73FFF73E72946FFF73BFF06
:1032E0006FE729462046FFF736FF6AE7204600F0E1
:1032F000D1FA66E738B504468B88FBB9CB88EBB9C1
:103300004B887F2B1AD803F07F0590F89C32DBB2F4
:10331000032B0CD080F89E52294603F0C7FA2046B2
:1033200000F0B8FA35B1022384F89C3209E0FFF7C7
:1033300012FF06E0012384F89C3202E02046FFF7EA
:103340000AFF38BD70B504460E468D782F4B1D70B0
:10335000012D10D890F89C32DBB2022B0FD0032B3A
:1033600026D0FFF7F8FE294B19782046FFF707FD16
:103370000325284670BDFFF7EEFE0325F9E7A5B14A
:1033800045602946FFF7F2FC054638B13146204634
:10339000FFF7E1FE022384F89C32EAE7204600F0C2
:1033A00079FA032384F89C32E3E700F073FAE0E74C
:1033B000CDB141688D4225D0C9B2FFF7E0FC134B77
:1033C000197861602046FFF7D1FC0546B0B131465F
:1033D0002046FFF7C0FE21792046FFF7D0FC0223EC
:1033E00084F89C32C5E7022380F89C324560294668
:1033F000FFF7C5FC204600F04DFABAE7204600F082
:1034000049FAB6E700F046FA0025B2E71C010020B1
:1034100008B5CB88012B0BD190F89C32DBB2022B84
:1034200009D9032B11D10122011D00F007FA01E097
:10343000FFF791FE08BD5BB23BB10146002341F8A6
:10344000083F012200F0FAF9F4E7FFF784FEF1E704
:1034500008B590F89C32013B022B12D8CB88022B86
:103460000CD10123C360D0F8A4320BB10323C36095
:10347000022200F10C0100F0E1F908BDFFF76BFE3C
:10348000FBE7FFF768FEF8E708B54B88012B04D08F
:10349000022B07D0FFF75FFE08BDC0F8A43200F092
:1034A000F9F9F9E78B881B0A80F8A03200F0F2F9ED
:1034B000F2E708B590F89C32013B022B09D84B8803
:1034C000012B00D008BD0023C0F8A43200F0E2F9BF
:1034D000F8E7FFF740FEF5E738B50C7804F0600434
:1034E000202C06D0402C04D06CB1FFF734FE002411
:1034F00007E0D0F8D432AE3350F823309B689847B9
:103500000446204638BD4D78092D1DD8DFE805F06A
:1035100012191C161C08051C0F0BFFF726FEF0E7FE
:10352000FFF7E8FEEDE7FFF70DFF0446E9E7FFF7D9
:103530006FFFE6E7FFF78CFF2C46E2E7FFF7A4FFFB
:10354000DFE7FFF7B6FFDCE7FFF705FED9E770B569
:1035500005460C460B7803F06003202B07D0402B68
:1035600005D023B1FFF7F7FD0026304670BD95F872
:103570009C32013B022B26D82179012905D921460D
:103580002846FFF7E8FD0026EFE72846FFF7CEFCC8
:1035900068B900F1AE0255F82220916889B1C5F8EA
:1035A000D4029368214628469847064600E0032641
:1035B000E388002BD9D1002ED7D1284600F06AF934
:1035C000D3E70326F4E721462846FFF7C4FD00268B
:1035D000CBE72DE9F04106460D468B88DFB20C782B
:1035E00004F06004202C08D0402C06D0DCB1FFF79A
:1035F000B2FD00242046BDE8F08139463046FFF791
:1036000097FC0446002840F0F880C6F8D40200F188
:10361000AE0356F823309B68002BEBD0294630468A
:1036200098470446E6E791F80180B8F1010F31D0E0
:10363000B8F1030F05D0B8F1000F67D0FFF78BFD8D
:10364000D8E790F89C32DBB2022B04D0032B12D0C7
:10365000FFF781FDCEE70FB1802F04D12946304618
:10366000FFF779FDC6E7394603F010F980213046AF
:1036700003F00CF9BEE74B8823B91FB1802F01D0AE
:10368000CB881BB1304600F005F9B3E7394603F0AB
:10369000FDF8F7E790F89C32DBB2022B04D0032B45
:1036A00012D0FFF758FDA5E70FB1802F04D12946AE
:1036B0003046FFF750FD9DE7394603F0E7F88021DB
:1036C000304603F0E3F895E74B88002B92D117F0D2
:1036D0007F0F17D1304600F0DDF839463046FFF74E
:1036E00027FC002886D1C6F8D40200F1AE0256F8B5
:1036F00022209268002A00F08280294630469047B6
:10370000044677E7394603F0C9F8E3E790F89C22CE
:10371000D2B2022A05D0032A27D0FFF71CFD444667
:1037200068E70FB1802F13D113F0800F14D107F089
:103730007F0707EB8707B90001F5A8713144043111
:1037400000230B600222304600F078F8444651E72F
:10375000FFF701FD44464DE707F07F0707EB8707BA
:10376000B900103131440431EAE75BB2002B1FDBB2
:1037700007F00F0202EB820200EB8202B2F8642132
:103780001AB3002B25DB07F07F0303EB83039C00B8
:1037900004F5A874344404340FB1802F22D10023DF
:1037A000236002222146304600F048F8444621E7D3
:1037B00007F00F0202EB820200EB8202928C002AD9
:1037C000DFD1FFF7C8FC444614E7FFF7C4FC4446CA
:1037D00010E707F07F0303EB83039C0010343444AD
:1037E0000434D9E73946304603F00AF810B1012312
:1037F0002360D6E700232360D3E70024FAE60446DB
:10380000F8E6D0B170B50D4616460446FFF785FCC4
:10381000431C5B009BB233802B7003236B7002232D
:1038200007E0EA5401345A1CD2B20021A9540233F1
:10383000DBB22278002AF4D170BD704708B5134678
:103840000222C0F894228361C3610A46002103F07A
:1038500035F8002008BD08B513460A46002103F0DC
:103860002DF8002008BD08B513460322C0F89422A5
:10387000C0F85831C0F85C310A46002103F026F840
:10388000002008BD08B513460A46002103F01EF8C3
:10389000002008BD08B50422C0F8942200231A466F
:1038A000194603F00BF8002008BD08B50522C0F842
:1038B000942200231A46194603F008F8002008BD98
:1038C00010B5D0F8D43203F1B00250F822408CB1D8
:1038D00000EB820043687BB194F80002FF280DD012
:1038E0009B6894F8012221469847FF2384F8003210
:1038F000002010BD0320FCE70020FAE70020F8E7D5
:103900000A2303800048704788000020F8B5064667
:103910000F4F82213846FFF7E1FB0546012138466B
:10392000FFF7DCFB044681213846FFF7D7FB0DB1DA
:103930001022AA711CB1402222710022627118B1BA
:103940004022027100224271432333800048F8BDB7
:103950000C000020F8B506460F4F82213846FFF7CD
:10396000BDFB054601213846FFF7B8FB044681211F
:103970003846FFF7B3FB0DB11022AA711CB14022EB
:1039800022710022627118B140220271002242713C
:10399000432333800048F8BD0C000020F8B50646EC
:1039A0000F4F82213846FFF799FB05460121384623
:1039B000FFF794FB044681213846FFF78FFB0DB1DA
:1039C0001022AA711CB1002222710222627118B168
:1039D0000022027102224271432333800048F8BD65
:1039E0000C00002038B5D0F8D432B03350F8235052
:1039F00095B1044602F01AFFC5F80C02D4F8D4328F
:103A0000B03304EB83046368DB6805F50371D5F814
:103A100004029847002038BD0320FCE738B5D0F8F1
:103A2000C852D0F8D432B03350F8234084B301F0F8
:103A30000F0303EB830200EB820292694AB103EBAE
:103A4000C30C05EB8C05ED69B2FBF5FC05FB1C22F4
:103A500092B10023C4F81432D0F8D432B03300EB62
:103A6000830043681B69ABB10A4604F50471D4F8BE
:103A700008029847002038BD03EB830300EB830363
:103A800000249C612346224602F018FF2046F2E7FC
:103A90000320F0E70020EEE7F0B583B0D0F8D43291
:103AA00003F1B00250F8227000228DF80720ADF823
:103AB0000420002F7BD004460D46097811F06006E3
:103AC00034D0202E6CD1EA882AB311F0800F07D1B0
:103AD0006B7887F80032EA883F2A13D8D2B212E016
:103AE000B03300EB83035B689B683946687898477E
:103AF000EA88072A28BF072239462046FFF79EFE9C
:103B0000002651E0402287F8012239462046FFF77F
:103B1000AAFE002648E0B03300EB83035B689B6895
:103B2000002229466878984700263DE06F780B2FE1
:103B300031D8DFE807F006393030303030303030FF
:103B4000162690F89C32DBB2032B04D02946FFF7EF
:103B500002FB032628E0022201A9FFF76FFE3E4682
:103B600022E090F89C32DBB2032B04D02946FFF709
:103B7000F2FA032618E001220DF10701FFF75EFEBD
:103B800012E090F89C32DBB2032B0DD02946FFF7F0
:103B9000E2FA032608E02946FFF7DDFA032603E0F0
:103BA0002946FFF7D8FA0326304603B0F0BD0326B6
:103BB000FAE738B50446812102F060FE002525872A
:103BC0000121204602F05AFEA4F8785182212046B5
:103BD00002F054FEA4F84C50A4F84E50D4F8D4325D
:103BE00003F1B00254F822209AB1B03304EB8303FE
:103BF0005B685B689847D4F8D432B03354F823003C
:103C000002F01EFED4F8D432B03344F82350C4F886
:103C1000BC52002038BD70B504464FF4077002F066
:103C20000BFE002849D005464FF407720021FCF72F
:103C300023FBD4F8D432B03344F82350C4F8BC5238
:103C4000237C002B41D14FF40073022281212046B6
:103C500002F009FE012626874FF400730222314646
:103C6000204602F000FEA4F878611023A4F84E303C
:103C7000082303228221204602F0F5FD0123A4F847
:103C80004C300026C5F80462D4F8D432B03304EBCB
:103C900083035B681B689847C5F81462C5F818620F
:103CA000D5F8042262B3257C1DBB4FF400730121BB
:103CB000204602F00BFE284670BDD4F8D432B03353
:103CC000002244F823200225F5E740230222812127
:103CD000204602F0C8FD01262687402302223146F5
:103CE000204602F0C0FDA4F878611023A4F84E30FD
:103CF000BEE740230121204602F0E8FD0025DAE777
:103D00000225D8E739B1D0F8D432B03300EB8300C4
:103D100041600020704703207047D0F8D432B033A0
:103D200050F823302BB1C3F80812C3F8102200203A
:103D3000704703207047D0F8D432B03350F82330A6
:103D40001BB1C3F80412002070470320704710B560
:103D5000D0F8D432B03350F8232092B1047C44B967
:103D60004FF40073D2F80422012102F0AFFD204687
:103D700010BD4023D2F80422012102F0A7FD002447
:103D8000F5E70324F3E700F1080343604FF0FF3247
:103D90008260C360036100230360704700230361F6
:103DA000704743684B609A688A6051609960086107
:103DB000036801330360704730B40D68B5F1FF3F0D
:103DC00011D000F108031C465B681A68AA42FAD9B0
:103DD00063684B6099608C606160086103680133BF
:103DE000036030BC70470469F2E703694168826888
:103DF0008A60416851605A68824206D0002202619E
:103E00001A68013A1A601868704782685A60F5E7C4
:103E100010B5044601F0B6FCA26BE36B9A4204D0E5
:103E2000002401F0D1FC204610BD0124F9E710B5B3
:103E3000044601F0A7FCA36B23B9012401F0C4FCE4
:103E4000204610BD0024F9E770B504461546866B80
:103E5000026C5AB903681BB100200136A66370BD1D
:103E6000806800F0D1FF0023A360F6E76DB94068D9
:103E7000FCF754FA6368226C13446360A2689342AF
:103E800019D3236863602846E7E7C068FCF746FA61
:103E9000E368226C51429B1AE3602268934202D28B
:103EA000A3680B44E360022D01D00020D5E726B1C2
:103EB000013E0020D1E72846CFE70020CDE70346AA
:103EC000026C6AB110B50846D9681144D9609C6883
:103ED000A14201D31968D960D968FCF71FFA10BD57
:103EE000704738B5054601F04DFC95F8454064B281
:103EF00001E0013C64B2002C0ADD6B6A43B105F1BC
:103F0000240000F0D7FE0028F3D000F067FFF0E7B0
:103F1000FF2385F8453001F057FC01F033FC95F89C
:103F2000444064B201E0013C64B2002C0ADD2B691C
:103F300043B105F1100000F0BDFE0028F3D000F001
:103F40004DFFF0E7FF2385F8443001F03DFC38BD1C
:103F500038B5E0B10D46044601F014FC2368E26B6D
:103F6000216C01FB0230A0600020A0636360013A75
:103F700002FB0133E360FF2384F8443084F84530CA
:103F8000FDB9236963B901F01FFC012038BD4FF072
:103F9000500383F31188BFF36F8FBFF34F8FFEE79A
:103FA00004F1100000F086FE0028ECD04FF0E02372
:103FB0004FF08052C3F8042DBFF34F8FBFF36F8FC4
:103FC000E1E704F11000FFF7DEFE04F12400FFF743
:103FD000DAFED8E738B51D46049C0B4649B9246083
:103FE000E063236401212046FFF7B2FF84F84C50C0
:103FF00038BD2260F4E740B94FF0500383F31188D5
:10400000BFF36F8FBFF34F8FFEE710B584B01C4630
:10401000844653B192B189B94FF0500383F31188AC
:10402000BFF36F8FBFF34F8FFEE74FF0500383F363
:104030001188BFF36F8FBFF34F8FFEE76AB1502334
:104040000393039B502B13D04FF0500383F311883D
:10405000BFF36F8FBFF34F8FFEE70029EFD04FF014
:10406000500383F31188BFF36F8FBFF34F8FFEE7C9
:10407000039B012384F8463000949DF81830604675
:10408000FFF7A8FF204604B010BDF0B585B001923F
:1040900088B10F461D460446B1B1022D20D1E36B15
:1040A000012B1DD04FF0500383F31188BFF36F8FA6
:1040B000BFF34F8FFEE74FF0500383F31188BFF338
:1040C0006F8FBFF34F8FFEE7036C002BE5D04FF0EF
:1040D000500383F31188BFF36F8FBFF34F8FFEE759
:1040E00000F082FE064658B9019B002B48D04FF0E5
:1040F000500383F31188BFF36F8FBFF34F8FFEE739
:1041000000263DE02A4639462046FFF79DFE636AB9
:104110007BB948B14FF0E0234FF08052C3F8042D33
:10412000BFF34F8FBFF36F8F01F04EFB012005B03F
:10413000F0BD04F1240000F0BDFD0028F4D04FF0E4
:10414000E0234FF08052C3F8042DBFF34F8FBFF32D
:104150006F8FE9E701F038FB0020E8E702A800F0E4
:10416000EFFD012619E0002384F8443021E000230C
:1041700084F8453023E02046FFF7B3FE00F078FCDA
:1041800001F000FBA26BE36B9A42BBD3022DB9D0C6
:10419000019B002BDED0002EE0D001F015FB00F0DB
:1041A000CDFB01F0EFFA94F8442052B2B2F1FF3F98
:1041B000D9D094F8452052B2B2F1FF3FD7D001F0E8
:1041C00003FB01A902A800F0C7FDD8B92046FFF7FC
:1041D0001FFE0028CFD0019904F1100000F036FD39
:1041E0002046FFF77EFE00F043FC0028C8D14FF0C8
:1041F000E0234FF08052C3F8042DBFF34F8FBFF37D
:104200006F8FBDE72046FFF76CFE00F031FC002009
:104210008DE72DE9F84390B10F4616461C4605463A
:10422000B1B1022C20D1EB6B012B1DD04FF050030C
:1042300083F31188BFF36F8FBFF34F8FFEE74FF00B
:10424000500383F31188BFF36F8FBFF34F8FFEE7E7
:10425000036C002BE5D04FF0500383F31188BFF3BC
:104260006F8FBFF34F8FFEE701F0B2FBEFF31188C2
:104270004FF0500383F31188BFF36F8FBFF34F8F5D
:10428000AA6BEB6B9A4206D3022C04D0002088F371
:104290001188BDE8F88395F845904FFA89F9AB6B22
:1042A000224639462846FFF7CFFDB9F1FF3F06D039
:1042B00009F101035BB285F845300120E7E76B6A3D
:1042C0000BB90120E3E705F1240000F0F3FC18B17D
:1042D00026B101203060DAE70120D8E70120D6E7D7
:1042E000F0B585B0019290B10F460446C1B100F01F
:1042F0007BFD064600BB019B002B5ED04FF05003B8
:1043000083F31188BFF36F8FBFF34F8FFEE74FF03A
:10431000500383F31188BFF36F8FBFF34F8FFEE716
:10432000036C002BE3D04FF0500383F31188BFF3ED
:104330006F8FBFF34F8FFEE700263EE039462046E1
:10434000FFF7BDFD013DA563236923B901F03CFAE8
:10435000012005B0F0BD04F1100000F0ABFC002816
:10436000F4D04FF0E0234FF08052C3F8042DBFF398
:104370004F8FBFF36F8FE9E701F026FA0020E8E7DF
:1043800002A800F0DDFC012621E0002384F844307F
:1043900029E0002384F845302BE02046FFF7A1FDFB
:1043A00000F066FB09E02046FFF79BFD00F060FB94
:1043B0002046FFF73CFD00283FD101F0E3F9A56B53
:1043C000002DBBD1019B002BD6D0002ED8D001F000
:1043D000FBF900F0B3FA01F0D5F994F844305BB280
:1043E000B3F1FF3FD1D094F845305BB2B3F1FF3F5A
:1043F000CFD001F0E9F901A902A800F0ADFC002836
:10440000D1D12046FFF713FD0028C6D0019904F151
:10441000240000F01BFC2046FFF763FD00F028FBA2
:104420000028CAD14FF0E0234FF08052C3F8042D8A
:10443000BFF34F8FBFF36F8FBFE7002089E7000006
:104440000023072B0CD8074A52F833200AB1013356
:10445000F7E7044A42F8331002EBC302506070479A
:10446000704700BF2001002070B504460D46164677
:1044700001F088F994F844305BB2B3F1FF3F0DD0FE
:1044800094F845305BB2B3F1FF3F0BD001F09CF9DB
:10449000A36B5BB12046FFF724FD70BD002384F8B9
:1044A0004430EDE7002384F84530EFE732462946F3
:1044B00004F1240000F0E2FBECE70000084B1B686D
:1044C0001B6823B9074B4FF0FF321A607047044B4B
:1044D0001B68DB68DB685A68024B1A60704700BFD4
:1044E000D0010020680100202DE9F04780460D46EC
:1044F00017469946089EDDF824A00A9C9200A52143
:10450000206BFBF7B9FE236B07F18042013A03EB06
:10451000820727F00707A5B34FF0000CBCF10F0F7F
:1045200009D815F80C3004EB0C0282F8343013B1C2
:104530000CF1010CF2E7002384F84330372E00D948
:104540003726E662E66400252565201DFFF726FC78
:1045500004F11800FFF722FC2461C6F13806A661B9
:104560006462656584F858504A464146384601F011
:10457000DDF82060BAF1000F01D0CAF80040BDE8B4
:10458000F087002384F83430D8E7000038B50024E1
:1045900007E004EB840293000E481844FFF7F3FB96
:1045A0000134372CF5D90C4D2846FFF7ECFB0B4CAA
:1045B0002046FFF7E8FB0A48FFF7E5FB0948FFF74D
:1045C000E2FB0948FFF7DFFB084B1D60084B1C604E
:1045D00038BD00BFFC010020E8010020D40100200C
:1045E000B8010020A40100208C010020D00100208F
:1045F000CC01002010B5044601F0C4F8224A13682B
:1046000001331360214B1B685BB1214B1B686BB9F5
:104610001E4B1B68DA6AE36A9A4207D81B4B1C6080
:1046200004E01A4B1C601368012B29D0194A136847
:10463000013313606364E06A174B1B68984201D929
:10464000154B186000EB8000211D144B03EB80001C
:10465000FFF7A7FB01F0B8F80D4B1B687BB10B4BC4
:104660001B68DA6AE36A9A4209D24FF0E0234FF0FE
:104670008052C3F8042DBFF34F8FBFF36F8F10BD6F
:10468000FFF784FFD2E700BF880100205C0600200E
:104690007C0100206C01002080010020FC01002032
:1046A00010B5044690F8593063B1012B11D0022B9C
:1046B0000ED04FF0500383F31188BFF36F8FBFF319
:1046C0004F8FFEE7006B00F0B5FF204600F0B2FF11
:1046D00010BD00F0AFFFFBE70F4B1B68D3B110B567
:1046E00001F050F80D4BDB68DC68201DFFF77DFB07
:1046F0000B4A1368013B1360074A1368013B1360C0
:1047000001F062F82046FFF7CBFF034B1B68002B3C
:10471000E6D110BD704700BFA0010020A401002019
:104720008801002008B5FFF7D7FF074B1B68012B56
:10473000F9D94FF0E0234FF08052C3F8042DBFF3B6
:104740004F8FBFF36F8FEEE7FC01002070B504467A
:104750000D46174B1E68174B18680430FFF745FBD2
:10476000B4F1FF3F0DD03444124B1B685C60A6428D
:1047700010D9114B18680F4B19680431FFF71CFB57
:1047800070BD002DEFD00B4B196804310B48FFF7BB
:1047900008FBF5E70A4B1868064B19680431FFF768
:1047A0000BFB084B1B68A342EAD9064B1C60E7E7EA
:1047B000840100205C060020CC0100208C01002038
:1047C000D00100206801002030B587B00B9C7CB17F
:1047D0000C9DB5B15C250495049D5C2D1AD04FF05D
:1047E000500383F31188BFF36F8FBFF34F8FFEE742
:1047F0004FF0500383F31188BFF36F8FBFF34F8FD8
:10480000FEE74FF0500383F31188BFF36F8FBFF3C0
:104810004F8FFEE7049D0C9D2C63022485F85940C0
:1048200000240394029505AC01940A9C0094FFF7C0
:104830005BFE0C98FFF7DEFE059807B030BD2DE952
:10484000F04385B00746884614461E46900000F0A7
:104850006FFE08B381465C2000F06AFE0546A8B1F1
:10486000C0F83090002380F85930039302900D9BDC
:1048700001930C9B00933346224641463846FFF78E
:1048800033FE2846FFF7B6FE012007E0484600F059
:10489000D1FE4FF0FF3001E04FF0FF3005B0BDE832
:1048A000F083000010B588B000240594069407AA90
:1048B00006A905A800F0C0FD059B0293069B019385
:1048C00000942346079A17491748FFF77DFF174BB7
:1048D0001860C0B100F04CFB012815D14FF0500317
:1048E00083F31188BFF36F8FBFF34F8F104B4FF0DF
:1048F000FF321A600F4B01221A600F4B00221A6020
:1049000000F0DAFF03E00020B0F1FF3F01D008B073
:1049100010BD4FF0500383F31188BFF36F8FBFF3C7
:104920004F8FFEE7146A0008254700086401002045
:10493000680100207C01002084010020024A1368E5
:1049400001331360704700BF60010020014B1868FD
:10495000704700BF84010020F8B53A4B1B68002B5C
:1049600069D1394B1D6801351D60C5B9374B1B68CE
:104970001B6843B14FF0500383F31188BFF36F8F6F
:10498000BFF34F8FFEE7314A1168314B1868106052
:104990001960304A136801331360FFF78FFD2E4B07
:1049A0001B68AB423DD900272C4B1B68DB6A03EB2D
:1049B00083039A002A4B9B58012B00D90127294BCE
:1049C0001B68002B3CD001273AE001271F4B1B68D6
:1049D0001B6843B31D4B1B68DB68DC6863689D4242
:1049E00026D3261D3046FFF700FAA36A1BB104F157
:1049F0001800FFF7FAF9E36A1B4A1268934201D9DB
:104A0000194A136003EB83039A003146144810449B
:104A1000FFF7C7F9E26A114B1B68DB6A9A42D4D2EE
:104A2000D4E70027D2E70C4B4FF0FF321A60BBE708
:104A3000094A1360B8E70D4A136801331360002771
:104A40003846F8BD6001002084010020D00100201C
:104A5000CC01002070010020680100205C060020CD
:104A6000FC0100207401002080010020780100205A
:104A700038B5354B1B6843B94FF0500383F31188A9
:104A8000BFF36F8FBFF34F8FFEE700F07BFE2E4B1F
:104A90001A68013A1A601B68002B4FD12B4B1B6818
:104AA0000BB900244BE00024294B1B681BB3284B97
:104AB000DB68DC6804F11800FFF797F9251D28462C
:104AC000FFF793F9E06A234B1B68984201D9214B09
:104AD000186000EB800029461F4B03EB8000FFF7B6
:104AE00060F9E26A1D4B1B68DB6A9A42DCD31C4BFF
:104AF00001221A60D8E70CB1FFF7E0FC194B1C68E3
:104B000084B9174B1C68D4B14FF0E0234FF08052AA
:104B1000C3F8042DBFF34F8FBFF36F8F01240EE056
:104B2000013C07D0FFF718FF0028F9D00C4B0122F9
:104B30001A60F5E70B4B00221A60E2E7002400F050
:104B400043FE204638BD00BF6001002088010020E0
:104B5000B801002080010020FC0100205C0600203C
:104B6000740100207801002010B5A8B10446104B54
:104B70001B6843B14FF0500383F31188BFF36F8F6D
:104B8000BFF34F8FFEE7FFF7D9FE00212046FFF766
:104B9000DDFDFFF76DFF48B94FF0E0234FF0805285
:104BA000C3F8042DBFF34F8FBFF36F8F10BD00BF4D
:104BB00060010020204B1B681BB1204B01221A60B2
:104BC00070471E4B00221A601D4B1B6803EB8301CC
:104BD0008A001C498A585AB90BB1013BF6E74FF0DD
:104BE000500383F31188BFF36F8FBFF34F8FFEE73E
:104BF000084603EB83018A0002445168496851600A
:104C000003EB830C4FEA8C020832024491420BD032
:104C100003EB830291000B4A0A445268D1680A4AA6
:104C20001160074A13607047486862469100054A60
:104C30000A445060ECE700BF6001002074010020CE
:104C400080010020FC0100205C06002058B110B556
:104C50000C46094A11681831FFF7AEF801212046C9
:104C6000FFF774FD10BD4FF0500383F31188BFF3BD
:104C70006F8FBFF34F8FFEE75C06002038B570B131
:104C80000D4614460A4A11681831FFF78AF80CB12C
:104C90004FF0FF3521462846FFF758FD38BD4FF04D
:104CA000500383F31188BFF36F8FBFF34F8FFEE77D
:104CB0005C06002038B5C368DC6824B304F118052D
:104CC0002846FFF792F8184B1B682BBB251D28467A
:104CD000FFF78BF8E06A154B1B68984201D9134B1C
:104CE000186000EB80002946114B03EB8000FFF7B2
:104CF00058F8E26A0F4B1B68DB6A9A4211D901200F
:104D00000D4B186038BD4FF0500383F31188BFF38B
:104D10006F8FBFF34F8FFEE729460848FFF741F832
:104D2000E7E70020EEE700BF6001002080010020DF
:104D3000FC0100205C06002074010020B801002066
:104D4000034B1B680360034B1B684360704700BF45
:104D50007001002084010020F8B5C8B10C4605465A
:104D6000F9B100F00FFD1B4B19686B68C81A226877
:104D7000B2F1FF3F26D0184E36682F68B74201D0F7
:104D80008B4224D9824215D80023236001241AE0E3
:104D90004FF0500383F31188BFF36F8FBFF34F8F32
:104DA000FEE74FF0500383F31188BFF36F8FBFF31B
:104DB0004F8FFEE75B1A134423602846FFF7C0FFBE
:104DC000002400E0002400F0FFFC2046F8BD012490
:104DD000F9E700BF8401002070010020014B01228F
:104DE0001A60704774010020054B1B6833B1054BF6
:104DF0001B680BB1002070470220704701207047EC
:104E00007C0100206001002000283BD038B504461A
:104E10001E4B1B68834208D04FF0500383F3118868
:104E2000BFF36F8FBFF34F8FFEE7036D43B94FF0B2
:104E3000500383F31188BFF36F8FBFF34F8FFEE7EB
:104E4000013B0365C16AC26C91421DD00BB10020C9
:104E500038BD051D2846FEF7C8FFE06CE062C0F1D2
:104E60003803A3610A4B1B68984201D9084B1860AC
:104E700000EB80002946074B03EB8000FEF791FF13
:104E80000120E5E7002070470020E1E75C060020F4
:104E900080010020FC010020064B1A6813682BB922
:104EA0000123036023B9D368186870470023F8E72B
:104EB000002070476007002008B541600061914202
:104EC0000CD8D21A83699A4201D3012008BD011D72
:104ED000094B1868FEF770FF0020F7E79A4201D2ED
:104EE000994206D2011D054B1868FEF765FF0020A8
:104EF000ECE70120EAE700BF5C0700206007002024
:104F000030B583B000F03EFC114B1B681BB100F0C4
:104F10005BFC03B030BD0F4D2846FEF734FF0E4C4E
:104F20002046FEF730FF0D4B1D600D4B1C6000232B
:104F300000930C4B0C4A10210A20FFF75CF8044B3D
:104F400018600028E3D00949FFF77AFADFE700BFCD
:104F50005807002078070020640700206007002021
:104F60005C07002060060020B00600201C6A0008D4
:104F700010B588B0FFF7C4FF124B1B68CBB10024FB
:104F80000594069407AA06A905A800F061FA059BF6
:104F90000293069B0193022300932346079A0A4932
:104FA0000A48FFF711FC0A4B186010B1012008B045
:104FB00010BD4FF0500383F31188BFF36F8FBFF321
:104FC0004F8FFEE758070020246A0008D5520008DA
:104FD00054070020B8B19C4603461848006858B3EF
:104FE00000B585B000910192029305291CDCFFF702
:104FF000FBFE022810D000231A4669460F480068BD
:10500000FFF743F815E04FF0500383F31188BFF327
:105010006F8FBFF34F8FFEE70023069A694607485C
:105020000068FFF732F804E0002362466946FFF7A4
:10503000F0F805B05DF804FB002070475807002029
:1050400070B582B01B4B1B681A6862B3DB681E68C0
:10505000DC68251D2846FEF7C8FE236A20469847CF
:1050600094F8283013F0040FECD0A36933449E4227
:1050700007D26360246129460E4B1868FEF79CFE38
:10508000E0E7002100910B4632462046FFF7A2FFE1
:105090000028D7D14FF0500383F31188BFF36F8FEF
:1050A000BFF34F8FFEE7044A10680249086013609F
:1050B00002B070BD600700205C07002038B50546CF
:1050C000FFF744FC0446074B1B68834205D80023C6
:1050D0002B60044B1C60204638BDFFF7B1FF012355
:1050E0002B60F6E75007002070B582B006460D46EB
:1050F00017490968C968CC68201DFEF776FE94F848
:1051000028C01CF0040F08D12CF0010C84F828C032
:10511000236A2046984702B070BDA16933462A46EB
:1051200031442046FFF7C8FE0028F1D0002100914D
:105130000B4632462046FFF74DFF0028E8D14FF0DE
:10514000500383F31188BFF36F8FBFF34F8FFEE7D8
:105150006007002070B582B006460C46FFF7EEFBF4
:1051600001A8FFF7ABFF019B33BB0546E4B9B04292
:1051700013D22246711B124B1868FFF775F9FFF71F
:1051800077FCD8B94FF0E0234FF08052C3F8042DDC
:10519000BFF34F8FBFF36F8F10E0FFF769FC294615
:1051A0003046FFF7A1FF09E0064A126812680AB903
:1051B0000124DEE71C46DCE7FFF75AFC02B070BDB5
:1051C000580700205C07002010B588B002E0049B5F
:1051D000002B0FDA002204A93D4B1868FFF780F876
:1051E000002873D0049B002BF1DA07990698059BE1
:1051F0009847ECE7069C636913B1201DFEF7F5FDA7
:1052000003A8FFF75BFF049B092BE3D8DFE803F05B
:105210000505053037500505303794F8283043F040
:10522000010384F82830059BA169024619442046F1
:10523000FFF742FE0028CDD0236A2046984794F815
:10524000283013F0040FC5D0A269002100910B464D
:10525000059802442046FFF7BDFE0028BAD14FF062
:10526000500383F31188BFF36F8FBFF34F8FFEE7B7
:1052700094F8283023F0010384F82830AAE794F842
:10528000283043F0010384F828300599A16131B139
:105290000346024601442046FFF70EFE9AE74FF010
:1052A000500383F31188BFF36F8FBFF34F8FFEE777
:1052B00094F8283013F0020F04D023F0010384F88F
:1052C000283087E7204600F0B5F983E708B010BD25
:1052D0005807002000B583B001A8FFF7DDFD019954
:1052E000FFF738FFFFF770FFF6E708B54FF0E02350
:1052F0001B69FFF779FD012800D108BD00F0B2FA63
:10530000FBE70000EFF305832BB9064B186828B9BB
:1053100001221A6070476FF0050070474FF0FF30B0
:10532000704700BF440E0020EFF3058373B90A4BAA
:105330001B68012B0DD110B50024084BDC77064B00
:1053400002221A60FFF7AEFA204610BD6FF005008A
:1053500070474FF0FF307047440E002000ED00E032
:10536000F0B587B000240594EFF3058474BB68B3EF
:1053700022B31568936903B918235C1E372C49D8EA
:10538000546814F0010F47D156696EB14FEA960C7C
:1053900094682CB1D7685B2F02D9176907B1C6B9D9
:1053A0002CB14FF0FF340EE04FF0800CF0E7D468E2
:1053B0008CB9146994B14FF0FF3404E01546002411
:1053C00018234FF0800C012C0AD0ACB1059807B01F
:1053D000F0BD0124F7E74FF0FF34F4E70024F2E7D3
:1053E000146992680292019400930B466246294622
:1053F000FFF7EAF90590E9E705AA019200930B4649
:105400001FFA8CF22946FFF71AFA0128DED0002392
:105410000593DBE70020DAE70020D8E708B5EFF3D3
:10542000058333B908B9002008BDFFF79DFB0020B4
:10543000FAE76FF00500F7E7034B0360034B0B60DF
:1054400080231360704700BFE80D0020E80B0020A8
:10545000034B0360034B0B604FF480731360704782
:105460008C0B00208C070020124A12F0070F1ED070
:10547000D11D21F00701C1F5705313440A460E48AF
:105480000260002141601344083B23F007030B48EE
:10549000036059601960991A51601360084B1960D4
:1054A000084B1960084B4FF000421A6070474FF4E8
:1054B0007053E4E7680E0020600E00205C0E0020B0
:1054C000540E0020580E0020480E0020164B1A469D
:1054D0001B688342FBD3516802EB010C844509D061
:1054E000416800EB010C634509D00360904219D07C
:1054F000106070474068014451601046F0E710B4F6
:105500000A4C2468A3420BD05B68194441601368BD
:105510001B680360904200D010605DF8044B704738
:105520000460F7E7704700BF600E00205C0E0020AB
:1055300038B50446FFF702FA384B1B68B3B1384B55
:105540001B681C4250D1002C50D004F1080214F00A
:10555000070F02D022F007020832002A55D0314B43
:105560001B68934253D330490C6804E0FFF77CFF7B
:10557000E5E721461C466368934202D22368002B6C
:10558000F7D1264B1B68A34243D00D68083523682A
:105590000B6063689B1A102B10D9A01810F0070F2E
:1055A00008D04FF0500383F31188BFF36F8FBFF320
:1055B0004F8FFEE743606260FFF788FF626819491A
:1055C0000B689B1A0B60194909688B4201D2174975
:1055D0000B60134B1B681343636000232360144A62
:1055E00013680133136002E0002500E00025FFF797
:1055F0003FFA15F0070F0ED04FF0500383F31188D8
:10560000BFF36F8FBFF34F8FFEE70025EFE7002555
:10561000EDE70025EBE7284638BD00BF5C0E002013
:10562000480E0020580E0020600E0020540E00206E
:10563000500E0020002834D038B50446A0F10805EB
:1056400050F8043C174A1268134208D14FF0500337
:1056500083F31188BFF36F8FBFF34F8FFEE750F8CE
:10566000081C41B14FF0500383F31188BFF36F8FD3
:10567000BFF34F8FFEE723EA020340F8043CFFF735
:105680005DF954F8041C084A13680B44136028465B
:10569000FFF71CFF054A136801331360FFF7E8F9B1
:1056A00038BD7047480E0020580E00204C0E0020D8
:1056B00082B0002301930D4B1B68B3F1FF3F08D06C
:1056C0004FF0500383F31188BFF36F8FBFF34F8FF9
:1056D000FEE74FF0500383F31188BFF36F8FBFF3E2
:1056E0004F8F019B002BFCD002B07047940000202C
:1056F00008480068006880F308884FF0000080F3D5
:10570000148862B661B6BFF34F8FBFF36F8F00DFAF
:1057100000BF000008ED00E0DFF80C00016841F474
:10572000700101607047000088ED00E04FF0807369
:1057300040F8043C21F0010140F8081C054B40F8FA
:105740000C3C40F8202C6FF0020340F8243C443815
:10575000704700BFB15600080000000000000000C4
:10576000074B19680868B0E8F04F80F30988BFF369
:105770006F8F4FF0000080F311887047AFF3008007
:105780005C0600204FF0500383F31188BFF36F8F46
:10579000BFF34F8F0B4A136801331360012B00D006
:1057A00070474FF0E023D3F8043D13F0FF0FF7D01C
:1057B0004FF0500383F31188BFF36F8FBFF34F8F08
:1057C000FEE700BF94000020094B1B6843B94FF06F
:1057D000500383F31188BFF36F8FBFF34F8FFEE742
:1057E000013B034A13600BB983F31188704700BF74
:1057F00094000020000000000000000000000000F5
:10580000EFF30980BFF36F8F154B1A681EF0100F6E
:1058100008BF20ED108A20E9F04F10602DE9090043
:105820004FF0500080F31188BFF34F8FBFF36F8F9D
:10583000FFF7C0F94FF0000080F3118809BC196828
:105840000868B0E8F04F1EF0100F08BFB0EC108AE7
:1058500080F30988BFF36F8F704700BFAFF30080FC
:105860005C06002008B54FF0500383F31188BFF3A6
:105870006F8FBFF34F8FFFF76FF828B14FF0E02322
:105880004FF08052C3F8042D002383F3118808BD24
:105890004FF0E022002313619361054B1B6805491B
:1058A000A1FB03139B09013B53610723136170475D
:1058B00008000020D34D62104FF0E023D3F8002DF4
:1058C0003D4B9A421CD04FF0E023D3F8002D3B4BC8
:1058D0009A421ED030B583B0394B1A78D2B20192B9
:1058E000FF221A701B78DBB28DF803309DF803306D
:1058F00003F05003334A1370334B07221A601BE046
:105900004FF0500383F31188BFF36F8FBFF34F8FB6
:10591000FEE74FF0500383F31188BFF36F8FBFF39F
:105920004F8FFEE7284A1368013B13609DF8033050
:105930005B00DBB28DF803309DF8033013F0800F6D
:10594000F0D1214B1B68032B08D04FF0500383F399
:105950001188BFF36F8FBFF34F8FFEE71B021A4A08
:10596000136003F4E0631360019BDBB2144A13700D
:105970004FF0E024D4F8203D43F47003C4F8203DF8
:10598000D4F8203D43F07043C4F8203DFFF780FF7A
:1059900000250E4B1D60FFF7BFFED4F8343F43F0E7
:1059A0004043C4F8343FFFF7A3FEFFF703F9FFF7C6
:1059B0007FFE284603B030BD71C20F4170C20F4157
:1059C00000E400E06C4A0020684A002094000020B7
:1059D000EFF305830F2B0FD9114A9B5CDBB2114A01
:1059E00012789A4208D94FF0500383F31188BFF31D
:1059F0006F8FBFF34F8FFEE74FF0E023D3F80C3DDE
:105A000003F4E063084A1268934208D94FF0500348
:105A100083F31188BFF36F8FBFF34F8FFEE770479B
:105A2000F0E300E06C4A0020684A002008B5054811
:105A3000054B0360FCF760FF00B908BD00F07AFC7D
:105A4000FBE700BF704A0020003002400268094BAB
:105A50009A4200D0704782B000230193064B1A6B24
:105A600042F480521A631B6B03F480530193019B31
:105A700002B07047003002400038024008B50D48BF
:105A80000D4B03604FF48273436000238360C36057
:105A9000036143614FF480228261C3610362436208
:105AA00083620A23C362FCF736FF00B908BD00F029
:105AB00041FCFBE7784A00200030014000B589B086
:105AC0000023039304930593069307930268154BF1
:105AD0009A4202D009B05DF804FB0021019103F560
